{
  "contractName": "Auction",
  "abi": [
    {
      "inputs": [
        {
          "internalType": "address",
          "name": "_charityAddress",
          "type": "address"
        }
      ],
      "payable": false,
      "stateMutability": "nonpayable",
      "type": "constructor"
    },
    {
      "anonymous": false,
      "inputs": [
        {
          "indexed": false,
          "internalType": "uint256",
          "name": "_itemId",
          "type": "uint256"
        },
        {
          "indexed": false,
          "internalType": "address",
          "name": "_bidder",
          "type": "address"
        },
        {
          "indexed": false,
          "internalType": "uint256",
          "name": "_bid",
          "type": "uint256"
        }
      ],
      "name": "NewBid",
      "type": "event"
    },
    {
      "anonymous": false,
      "inputs": [
        {
          "indexed": false,
          "internalType": "string",
          "name": "_name",
          "type": "string"
        },
        {
          "indexed": false,
          "internalType": "string",
          "name": "_link",
          "type": "string"
        },
        {
          "indexed": false,
          "internalType": "uint256",
          "name": "_minAmount",
          "type": "uint256"
        }
      ],
      "name": "NewItem",
      "type": "event"
    },
    {
      "constant": true,
      "inputs": [],
      "name": "endTime",
      "outputs": [
        {
          "internalType": "uint256",
          "name": "",
          "type": "uint256"
        }
      ],
      "payable": false,
      "stateMutability": "view",
      "type": "function"
    },
    {
      "constant": true,
      "inputs": [],
      "name": "getItems",
      "outputs": [
        {
          "components": [
            {
              "internalType": "string",
              "name": "name",
              "type": "string"
            },
            {
              "internalType": "string",
              "name": "link",
              "type": "string"
            },
            {
              "internalType": "uint256",
              "name": "minAmount",
              "type": "uint256"
            },
            {
              "internalType": "uint256",
              "name": "highestBid",
              "type": "uint256"
            },
            {
              "internalType": "address",
              "name": "highestBidder",
              "type": "address"
            }
          ],
          "internalType": "struct ItemStorage.Item[]",
          "name": "",
          "type": "tuple[]"
        }
      ],
      "payable": false,
      "stateMutability": "view",
      "type": "function"
    },
    {
      "constant": true,
      "inputs": [
        {
          "internalType": "uint256",
          "name": "",
          "type": "uint256"
        }
      ],
      "name": "itemToOwner",
      "outputs": [
        {
          "internalType": "address",
          "name": "",
          "type": "address"
        }
      ],
      "payable": false,
      "stateMutability": "view",
      "type": "function"
    },
    {
      "constant": true,
      "inputs": [
        {
          "internalType": "uint256",
          "name": "",
          "type": "uint256"
        }
      ],
      "name": "items",
      "outputs": [
        {
          "internalType": "string",
          "name": "name",
          "type": "string"
        },
        {
          "internalType": "string",
          "name": "link",
          "type": "string"
        },
        {
          "internalType": "uint256",
          "name": "minAmount",
          "type": "uint256"
        },
        {
          "internalType": "uint256",
          "name": "highestBid",
          "type": "uint256"
        },
        {
          "internalType": "address",
          "name": "highestBidder",
          "type": "address"
        }
      ],
      "payable": false,
      "stateMutability": "view",
      "type": "function"
    },
    {
      "constant": false,
      "inputs": [
        {
          "internalType": "string",
          "name": "_name",
          "type": "string"
        },
        {
          "internalType": "string",
          "name": "_link",
          "type": "string"
        },
        {
          "internalType": "uint256",
          "name": "_minAmount",
          "type": "uint256"
        }
      ],
      "name": "registerItem",
      "outputs": [],
      "payable": false,
      "stateMutability": "nonpayable",
      "type": "function"
    },
    {
      "constant": false,
      "inputs": [
        {
          "internalType": "uint256",
          "name": "_itemId",
          "type": "uint256"
        }
      ],
      "name": "bid",
      "outputs": [],
      "payable": true,
      "stateMutability": "payable",
      "type": "function"
    }
  ],
  "bytecode": "0x608060405262015180420160005534801561001957600080fd5b506040516110aa3803806110aa833981810160405261003b9190810190610097565b80600460006101000a81548173ffffffffffffffffffffffffffffffffffffffff021916908373ffffffffffffffffffffffffffffffffffffffff16021790555050610109565b600081519050610091816100f2565b92915050565b6000602082840312156100a957600080fd5b60006100b784828501610082565b91505092915050565b60006100cb826100d2565b9050919050565b600073ffffffffffffffffffffffffffffffffffffffff82169050919050565b6100fb816100c0565b811461010657600080fd5b50565b610f92806101186000396000f3fe6080604052600436106100555760003560e01c80631a4d96cd1461005a5780633197cbb614610097578063410d59cc146100c2578063454a2ab3146100ed5780639a95899e14610109578063bfb231d214610132575b600080fd5b34801561006657600080fd5b50610081600480360361007c9190810190610a4f565b610173565b60405161008e9190610c74565b60405180910390f35b3480156100a357600080fd5b506100ac6101a6565b6040516100b99190610d57565b60405180910390f35b3480156100ce57600080fd5b506100d76101ac565b6040516100e49190610c8f565b60405180910390f35b61010760048036036101029190810190610a4f565b6103b9565b005b34801561011557600080fd5b50610130600480360361012b91908101906109d0565b61057e565b005b34801561013e57600080fd5b5061015960048036036101549190810190610a4f565b61072f565b60405161016a959493929190610cf6565b60405180910390f35b60026020528060005260406000206000915054906101000a900473ffffffffffffffffffffffffffffffffffffffff1681565b60005481565b60606001805480602002602001604051908101604052809291908181526020016000905b828210156103b057838290600052602060002090600502016040518060a0016040529081600082018054600181600116156101000203166002900480601f01602080910402602001604051908101604052809291908181526020018280546001816001161561010002031660029004801561028c5780601f106102615761010080835404028352916020019161028c565b820191906000526020600020905b81548152906001019060200180831161026f57829003601f168201915b50505050508152602001600182018054600181600116156101000203166002900480601f01602080910402602001604051908101604052809291908181526020018280546001816001161561010002031660029004801561032e5780601f106103035761010080835404028352916020019161032e565b820191906000526020600020905b81548152906001019060200180831161031157829003601f168201915b5050505050815260200160028201548152602001600382015481526020016004820160009054906101000a900473ffffffffffffffffffffffffffffffffffffffff1673ffffffffffffffffffffffffffffffffffffffff1673ffffffffffffffffffffffffffffffffffffffff1681525050815260200190600101906101d0565b50505050905090565b60005442106103c757600080fd5b600181815481106103d457fe5b90600052602060002090600502016003015434600360003373ffffffffffffffffffffffffffffffffffffffff1673ffffffffffffffffffffffffffffffffffffffff16815260200190815260200160002054011161043257600080fd5b336001828154811061044057fe5b906000526020600020906005020160040160006101000a81548173ffffffffffffffffffffffffffffffffffffffff021916908373ffffffffffffffffffffffffffffffffffffffff16021790555034600360003373ffffffffffffffffffffffffffffffffffffffff1673ffffffffffffffffffffffffffffffffffffffff1681526020019081526020016000205401600182815481106104de57fe5b90600052602060002090600502016003018190555034600360003373ffffffffffffffffffffffffffffffffffffffff1673ffffffffffffffffffffffffffffffffffffffff168152602001908152602001600020600082825401925050819055507f558a0d5d5468d74b0db24c74eb348b42271c2ebb4c9e953ced38aaed95fa436181333460405161057393929190610d72565b60405180910390a150565b600054421061058c57600080fd5b60016040518060a0016040528085815260200184815260200183815260200160008152602001600073ffffffffffffffffffffffffffffffffffffffff168152509080600181540180825580915050906001820390600052602060002090600502016000909192909190915060008201518160000190805190602001906106149291906108c2565b5060208201518160010190805190602001906106319291906108c2565b50604082015181600201556060820151816003015560808201518160040160006101000a81548173ffffffffffffffffffffffffffffffffffffffff021916908373ffffffffffffffffffffffffffffffffffffffff160217905550505050600060018080549050039050336002600083815260200190815260200160002060006101000a81548173ffffffffffffffffffffffffffffffffffffffff021916908373ffffffffffffffffffffffffffffffffffffffff1602179055507f229f227092dc7739ed9a2ef950fd786472b4323188bc31efe2c4d0e1dc3fdc8784848460405161072193929190610cb1565b60405180910390a150505050565b6001818154811061073c57fe5b9060005260206000209060050201600091509050806000018054600181600116156101000203166002900480601f0160208091040260200160405190810160405280929190818152602001828054600181600116156101000203166002900480156107e85780601f106107bd576101008083540402835291602001916107e8565b820191906000526020600020905b8154815290600101906020018083116107cb57829003601f168201915b505050505090806001018054600181600116156101000203166002900480601f0160208091040260200160405190810160405280929190818152602001828054600181600116156101000203166002900480156108865780601f1061085b57610100808354040283529160200191610886565b820191906000526020600020905b81548152906001019060200180831161086957829003601f168201915b5050505050908060020154908060030154908060040160009054906101000a900473ffffffffffffffffffffffffffffffffffffffff16905085565b828054600181600116156101000203166002900490600052602060002090601f016020900481019282601f1061090357805160ff1916838001178555610931565b82800160010185558215610931579182015b82811115610930578251825591602001919060010190610915565b5b50905061093e9190610942565b5090565b61096491905b80821115610960576000816000905550600101610948565b5090565b90565b600082601f83011261097857600080fd5b813561098b61098682610dd6565b610da9565b915080825260208301602083018583830111156109a757600080fd5b6109b2838284610ee5565b50505092915050565b6000813590506109ca81610f38565b92915050565b6000806000606084860312156109e557600080fd5b600084013567ffffffffffffffff8111156109ff57600080fd5b610a0b86828701610967565b935050602084013567ffffffffffffffff811115610a2857600080fd5b610a3486828701610967565b9250506040610a45868287016109bb565b9150509250925092565b600060208284031215610a6157600080fd5b6000610a6f848285016109bb565b91505092915050565b6000610a848383610bd9565b905092915050565b610a9581610eaf565b82525050565b610aa481610e73565b82525050565b610ab381610e73565b82525050565b6000610ac482610e12565b610ace8185610e40565b935083602082028501610ae085610e02565b8060005b85811015610b1c5784840389528151610afd8582610a78565b9450610b0883610e33565b925060208a01995050600181019050610ae4565b50829750879550505050505092915050565b6000610b3982610e28565b610b438185610e62565b9350610b53818560208601610ef4565b610b5c81610f27565b840191505092915050565b6000610b7282610e1d565b610b7c8185610e51565b9350610b8c818560208601610ef4565b610b9581610f27565b840191505092915050565b6000610bab82610e1d565b610bb58185610e62565b9350610bc5818560208601610ef4565b610bce81610f27565b840191505092915050565b600060a0830160008301518482036000860152610bf68282610b67565b91505060208301518482036020860152610c108282610b67565b9150506040830151610c256040860182610c56565b506060830151610c386060860182610c56565b506080830151610c4b6080860182610a9b565b508091505092915050565b610c5f81610ea5565b82525050565b610c6e81610ea5565b82525050565b6000602082019050610c896000830184610aaa565b92915050565b60006020820190508181036000830152610ca98184610ab9565b905092915050565b60006060820190508181036000830152610ccb8186610b2e565b90508181036020830152610cdf8185610b2e565b9050610cee6040830184610c65565b949350505050565b600060a0820190508181036000830152610d108188610ba0565b90508181036020830152610d248187610ba0565b9050610d336040830186610c65565b610d406060830185610c65565b610d4d6080830184610aaa565b9695505050505050565b6000602082019050610d6c6000830184610c65565b92915050565b6000606082019050610d876000830186610c65565b610d946020830185610a8c565b610da16040830184610c65565b949350505050565b6000604051905081810181811067ffffffffffffffff82111715610dcc57600080fd5b8060405250919050565b600067ffffffffffffffff821115610ded57600080fd5b601f19601f8301169050602081019050919050565b6000819050602082019050919050565b600081519050919050565b600081519050919050565b600081519050919050565b6000602082019050919050565b600082825260208201905092915050565b600082825260208201905092915050565b600082825260208201905092915050565b6000610e7e82610e85565b9050919050565b600073ffffffffffffffffffffffffffffffffffffffff82169050919050565b6000819050919050565b6000610eba82610ec1565b9050919050565b6000610ecc82610ed3565b9050919050565b6000610ede82610e85565b9050919050565b82818337600083830152505050565b60005b83811015610f12578082015181840152602081019050610ef7565b83811115610f21576000848401525b50505050565b6000601f19601f8301169050919050565b610f4181610ea5565b8114610f4c57600080fd5b5056fea365627a7a723158200e0b2cfaadbe81733d7bbf784b4e282e25ecd262608c9e65dd867b8877fbac5d6c6578706572696d656e74616cf564736f6c63430005100040",
  "source": "// SPDX-License-Identifier: MIT\npragma solidity >=0.4.22 <0.9.0;\npragma experimental ABIEncoderV2;\n\nimport \"./ItemStorage.sol\";\n\ncontract Auction is ItemStorage {\n  mapping (address => uint256) balances;\n\n  address charityAddress;\n\n  event NewBid(uint256 _itemId, address _bidder, uint256 _bid);\n\n  constructor(address _charityAddress) public {\n    charityAddress = _charityAddress;\n  }\n\n  function bid(uint256 _itemId) public beforeEndTime payable {\n    require(balances[msg.sender] + msg.value > items[_itemId].highestBid);\n\n    items[_itemId].highestBidder = msg.sender;\n    items[_itemId].highestBid = balances[msg.sender] + msg.value;\n    balances[msg.sender] += msg.value;\n\n    emit NewBid(_itemId, msg.sender, msg.value);\n  }\n}\n",
  "sourcePath": "/home/ubuntu/Documents/AuctionSystem/blockchain/contracts/Auction.sol",
  "compiler": {
    "name": "solc",
    "version": "0.5.16+commit.9c3226ce.Emscripten.clang"
  },
  "schemaVersion": "3.4.3",
  "updatedAt": "2021-08-31T13:09:19.205Z",
  "networkType": "ethereum",
  "devdoc": {
    "methods": {}
  },
  "userdoc": {
    "methods": {}
  }
}