{
  "contractName": "ItemStorage",
  "abi": [
    {
      "anonymous": false,
      "inputs": [
        {
          "indexed": false,
          "internalType": "string",
          "name": "_name",
          "type": "string"
        },
        {
          "indexed": false,
          "internalType": "string",
          "name": "_link",
          "type": "string"
        },
        {
          "indexed": false,
          "internalType": "uint256",
          "name": "_minAmount",
          "type": "uint256"
        }
      ],
      "name": "NewItem",
      "type": "event"
    },
    {
      "constant": true,
      "inputs": [],
      "name": "endTime",
      "outputs": [
        {
          "internalType": "uint256",
          "name": "",
          "type": "uint256"
        }
      ],
      "payable": false,
      "stateMutability": "view",
      "type": "function"
    },
    {
      "constant": true,
      "inputs": [
        {
          "internalType": "uint256",
          "name": "",
          "type": "uint256"
        }
      ],
      "name": "itemToOwner",
      "outputs": [
        {
          "internalType": "address",
          "name": "",
          "type": "address"
        }
      ],
      "payable": false,
      "stateMutability": "view",
      "type": "function"
    },
    {
      "constant": true,
      "inputs": [
        {
          "internalType": "uint256",
          "name": "",
          "type": "uint256"
        }
      ],
      "name": "items",
      "outputs": [
        {
          "internalType": "string",
          "name": "name",
          "type": "string"
        },
        {
          "internalType": "string",
          "name": "link",
          "type": "string"
        },
        {
          "internalType": "uint256",
          "name": "minAmount",
          "type": "uint256"
        },
        {
          "internalType": "uint256",
          "name": "highestBid",
          "type": "uint256"
        },
        {
          "internalType": "address",
          "name": "highestBidder",
          "type": "address"
        }
      ],
      "payable": false,
      "stateMutability": "view",
      "type": "function"
    },
    {
      "constant": false,
      "inputs": [
        {
          "internalType": "string",
          "name": "_name",
          "type": "string"
        },
        {
          "internalType": "string",
          "name": "_link",
          "type": "string"
        },
        {
          "internalType": "uint256",
          "name": "_minAmount",
          "type": "uint256"
        }
      ],
      "name": "registerItem",
      "outputs": [],
      "payable": false,
      "stateMutability": "nonpayable",
      "type": "function"
    },
    {
      "constant": true,
      "inputs": [],
      "name": "getItems",
      "outputs": [
        {
          "components": [
            {
              "internalType": "string",
              "name": "name",
              "type": "string"
            },
            {
              "internalType": "string",
              "name": "link",
              "type": "string"
            },
            {
              "internalType": "uint256",
              "name": "minAmount",
              "type": "uint256"
            },
            {
              "internalType": "uint256",
              "name": "highestBid",
              "type": "uint256"
            },
            {
              "internalType": "address",
              "name": "highestBidder",
              "type": "address"
            }
          ],
          "internalType": "struct ItemStorage.Item[]",
          "name": "",
          "type": "tuple[]"
        }
      ],
      "payable": false,
      "stateMutability": "view",
      "type": "function"
    }
  ],
  "bytecode": "0x608060405262015180420160005534801561001957600080fd5b50610cf6806100296000396000f3fe608060405234801561001057600080fd5b50600436106100575760003560e01c80631a4d96cd1461005c5780633197cbb61461008c578063410d59cc146100aa5780639a95899e146100c8578063bfb231d2146100e4575b600080fd5b6100766004803603610071919081019061082f565b610118565b6040516100839190610a45565b60405180910390f35b61009461014b565b6040516100a19190610b28565b60405180910390f35b6100b2610151565b6040516100bf9190610a60565b60405180910390f35b6100e260048036036100dd91908101906107b0565b61035e565b005b6100fe60048036036100f9919081019061082f565b61050f565b60405161010f959493929190610ac7565b60405180910390f35b60026020528060005260406000206000915054906101000a900473ffffffffffffffffffffffffffffffffffffffff1681565b60005481565b60606001805480602002602001604051908101604052809291908181526020016000905b8282101561035557838290600052602060002090600502016040518060a0016040529081600082018054600181600116156101000203166002900480601f0160208091040260200160405190810160405280929190818152602001828054600181600116156101000203166002900480156102315780601f1061020657610100808354040283529160200191610231565b820191906000526020600020905b81548152906001019060200180831161021457829003601f168201915b50505050508152602001600182018054600181600116156101000203166002900480601f0160208091040260200160405190810160405280929190818152602001828054600181600116156101000203166002900480156102d35780601f106102a8576101008083540402835291602001916102d3565b820191906000526020600020905b8154815290600101906020018083116102b657829003601f168201915b5050505050815260200160028201548152602001600382015481526020016004820160009054906101000a900473ffffffffffffffffffffffffffffffffffffffff1673ffffffffffffffffffffffffffffffffffffffff1673ffffffffffffffffffffffffffffffffffffffff168152505081526020019060010190610175565b50505050905090565b600054421061036c57600080fd5b60016040518060a0016040528085815260200184815260200183815260200160008152602001600073ffffffffffffffffffffffffffffffffffffffff168152509080600181540180825580915050906001820390600052602060002090600502016000909192909190915060008201518160000190805190602001906103f49291906106a2565b5060208201518160010190805190602001906104119291906106a2565b50604082015181600201556060820151816003015560808201518160040160006101000a81548173ffffffffffffffffffffffffffffffffffffffff021916908373ffffffffffffffffffffffffffffffffffffffff160217905550505050600060018080549050039050336002600083815260200190815260200160002060006101000a81548173ffffffffffffffffffffffffffffffffffffffff021916908373ffffffffffffffffffffffffffffffffffffffff1602179055507f229f227092dc7739ed9a2ef950fd786472b4323188bc31efe2c4d0e1dc3fdc8784848460405161050193929190610a82565b60405180910390a150505050565b6001818154811061051c57fe5b9060005260206000209060050201600091509050806000018054600181600116156101000203166002900480601f0160208091040260200160405190810160405280929190818152602001828054600181600116156101000203166002900480156105c85780601f1061059d576101008083540402835291602001916105c8565b820191906000526020600020905b8154815290600101906020018083116105ab57829003601f168201915b505050505090806001018054600181600116156101000203166002900480601f0160208091040260200160405190810160405280929190818152602001828054600181600116156101000203166002900480156106665780601f1061063b57610100808354040283529160200191610666565b820191906000526020600020905b81548152906001019060200180831161064957829003601f168201915b5050505050908060020154908060030154908060040160009054906101000a900473ffffffffffffffffffffffffffffffffffffffff16905085565b828054600181600116156101000203166002900490600052602060002090601f016020900481019282601f106106e357805160ff1916838001178555610711565b82800160010185558215610711579182015b828111156107105782518255916020019190600101906106f5565b5b50905061071e9190610722565b5090565b61074491905b80821115610740576000816000905550600101610728565b5090565b90565b600082601f83011261075857600080fd5b813561076b61076682610b70565b610b43565b9150808252602083016020830185838301111561078757600080fd5b610792838284610c49565b50505092915050565b6000813590506107aa81610c9c565b92915050565b6000806000606084860312156107c557600080fd5b600084013567ffffffffffffffff8111156107df57600080fd5b6107eb86828701610747565b935050602084013567ffffffffffffffff81111561080857600080fd5b61081486828701610747565b92505060406108258682870161079b565b9150509250925092565b60006020828403121561084157600080fd5b600061084f8482850161079b565b91505092915050565b600061086483836109aa565b905092915050565b61087581610c0d565b82525050565b61088481610c0d565b82525050565b600061089582610bac565b61089f8185610bda565b9350836020820285016108b185610b9c565b8060005b858110156108ed57848403895281516108ce8582610858565b94506108d983610bcd565b925060208a019950506001810190506108b5565b50829750879550505050505092915050565b600061090a82610bc2565b6109148185610bfc565b9350610924818560208601610c58565b61092d81610c8b565b840191505092915050565b600061094382610bb7565b61094d8185610beb565b935061095d818560208601610c58565b61096681610c8b565b840191505092915050565b600061097c82610bb7565b6109868185610bfc565b9350610996818560208601610c58565b61099f81610c8b565b840191505092915050565b600060a08301600083015184820360008601526109c78282610938565b915050602083015184820360208601526109e18282610938565b91505060408301516109f66040860182610a27565b506060830151610a096060860182610a27565b506080830151610a1c608086018261086c565b508091505092915050565b610a3081610c3f565b82525050565b610a3f81610c3f565b82525050565b6000602082019050610a5a600083018461087b565b92915050565b60006020820190508181036000830152610a7a818461088a565b905092915050565b60006060820190508181036000830152610a9c81866108ff565b90508181036020830152610ab081856108ff565b9050610abf6040830184610a36565b949350505050565b600060a0820190508181036000830152610ae18188610971565b90508181036020830152610af58187610971565b9050610b046040830186610a36565b610b116060830185610a36565b610b1e608083018461087b565b9695505050505050565b6000602082019050610b3d6000830184610a36565b92915050565b6000604051905081810181811067ffffffffffffffff82111715610b6657600080fd5b8060405250919050565b600067ffffffffffffffff821115610b8757600080fd5b601f19601f8301169050602081019050919050565b6000819050602082019050919050565b600081519050919050565b600081519050919050565b600081519050919050565b6000602082019050919050565b600082825260208201905092915050565b600082825260208201905092915050565b600082825260208201905092915050565b6000610c1882610c1f565b9050919050565b600073ffffffffffffffffffffffffffffffffffffffff82169050919050565b6000819050919050565b82818337600083830152505050565b60005b83811015610c76578082015181840152602081019050610c5b565b83811115610c85576000848401525b50505050565b6000601f19601f8301169050919050565b610ca581610c3f565b8114610cb057600080fd5b5056fea365627a7a72315820415e33832cfb010bb41674442983405e5d1fc2796f46c2e8c3ba4b5d54e7a69f6c6578706572696d656e74616cf564736f6c63430005100040",
  "source": "// SPDX-License-Identifier: MIT\npragma solidity >=0.4.22 <0.9.0;\npragma experimental ABIEncoderV2;\n\ncontract ItemStorage {\n  uint public endTime = block.timestamp + 1 days;\n\n  struct Item {\n    string name;\n    string link;\n    uint256 minAmount;\n    uint256 highestBid;\n    address highestBidder;\n  }\n\n  Item[] public items;\n\n  mapping (uint256 => address) public itemToOwner;\n\n  event NewItem(string _name, string _link, uint256 _minAmount);\n\n  modifier beforeEndTime() {\n    require(block.timestamp < endTime);\n    _;\n  }\n\n  function registerItem(string memory _name, string memory _link, uint256 _minAmount) public beforeEndTime {\n    items.push(Item(_name, _link, _minAmount, 0, address(0)));\n    uint _id = items.length - 1;\n\n    itemToOwner[_id] = msg.sender;\n\n    emit NewItem(_name, _link, _minAmount);\n  }\n\n  function getItems() public view returns(Item[] memory) {\n    return items;\n  }\n}\n",
  "sourcePath": "/home/ubuntu/Documents/AuctionSystem/blockchain/contracts/ItemStorage.sol",
  "compiler": {
    "name": "solc",
    "version": "0.5.16+commit.9c3226ce.Emscripten.clang"
  },
  "schemaVersion": "3.4.3",
  "updatedAt": "2021-08-31T13:06:00.497Z",
  "devdoc": {
    "methods": {}
  },
  "userdoc": {
    "methods": {}
  }
}